{
  "_format": "hh-sol-artifact-1",
  "contractName": "MerkleDistributor",
  "sourceName": "contracts/MerkleDistributor.sol",
  "abi": [
    {
      "inputs": [
        {
          "internalType": "address",
          "name": "token_",
          "type": "address"
        },
        {
          "internalType": "bytes32",
          "name": "merkleRoot_",
          "type": "bytes32"
        },
        {
          "internalType": "uint256",
          "name": "_totalRedemptions",
          "type": "uint256"
        },
        {
          "internalType": "uint256",
          "name": "_initialPoolSize",
          "type": "uint256"
        },
        {
          "internalType": "uint256",
          "name": "_endingTimestamp",
          "type": "uint256"
        },
        {
          "internalType": "address",
          "name": "_recipient",
          "type": "address"
        }
      ],
      "stateMutability": "nonpayable",
      "type": "constructor"
    },
    {
      "inputs": [],
      "name": "EthTransferFailed",
      "type": "error"
    },
    {
      "inputs": [],
      "name": "IllegibleTokenAmount",
      "type": "error"
    },
    {
      "inputs": [],
      "name": "InvalidProof",
      "type": "error"
    },
    {
      "inputs": [],
      "name": "NoEthToWithdraw",
      "type": "error"
    },
    {
      "inputs": [],
      "name": "OnlyOwnerCanRedeem",
      "type": "error"
    },
    {
      "inputs": [],
      "name": "RedemptionAlreadyFulfilled",
      "type": "error"
    },
    {
      "inputs": [],
      "name": "RedemptionPeriodNotFinished",
      "type": "error"
    },
    {
      "inputs": [],
      "name": "TokenTransferFailed",
      "type": "error"
    },
    {
      "anonymous": false,
      "inputs": [
        {
          "indexed": false,
          "internalType": "address",
          "name": "sender",
          "type": "address"
        },
        {
          "indexed": false,
          "internalType": "uint256",
          "name": "ethSent",
          "type": "uint256"
        }
      ],
      "name": "EthReceived",
      "type": "event"
    },
    {
      "anonymous": false,
      "inputs": [
        {
          "indexed": false,
          "internalType": "address",
          "name": "recipient",
          "type": "address"
        },
        {
          "indexed": false,
          "internalType": "uint256",
          "name": "ethWithdrawn",
          "type": "uint256"
        }
      ],
      "name": "EthWithdrawnAfterEndingPeriod",
      "type": "event"
    },
    {
      "anonymous": false,
      "inputs": [
        {
          "indexed": false,
          "internalType": "uint256",
          "name": "index",
          "type": "uint256"
        },
        {
          "indexed": false,
          "internalType": "address",
          "name": "account",
          "type": "address"
        },
        {
          "indexed": false,
          "internalType": "uint256",
          "name": "amount",
          "type": "uint256"
        },
        {
          "indexed": false,
          "internalType": "uint256",
          "name": "allocatedEth",
          "type": "uint256"
        },
        {
          "indexed": false,
          "internalType": "uint256",
          "name": "redeemedEth",
          "type": "uint256"
        }
      ],
      "name": "Redeemed",
      "type": "event"
    },
    {
      "inputs": [],
      "name": "DEAD_ADDRESS",
      "outputs": [
        {
          "internalType": "address",
          "name": "",
          "type": "address"
        }
      ],
      "stateMutability": "view",
      "type": "function"
    },
    {
      "inputs": [],
      "name": "MAX_PERCENTAGE_BPS",
      "outputs": [
        {
          "internalType": "uint256",
          "name": "",
          "type": "uint256"
        }
      ],
      "stateMutability": "view",
      "type": "function"
    },
    {
      "inputs": [
        {
          "internalType": "uint256",
          "name": "allocatedTokens",
          "type": "uint256"
        },
        {
          "internalType": "uint256",
          "name": "actual",
          "type": "uint256"
        },
        {
          "internalType": "uint256",
          "name": "allocatedEth",
          "type": "uint256"
        }
      ],
      "name": "calcRedeemableAmount",
      "outputs": [
        {
          "internalType": "uint256",
          "name": "",
          "type": "uint256"
        }
      ],
      "stateMutability": "pure",
      "type": "function"
    },
    {
      "inputs": [],
      "name": "currentPoolSize",
      "outputs": [
        {
          "internalType": "uint256",
          "name": "",
          "type": "uint256"
        }
      ],
      "stateMutability": "view",
      "type": "function"
    },
    {
      "inputs": [],
      "name": "endingTimestamp",
      "outputs": [
        {
          "internalType": "uint256",
          "name": "",
          "type": "uint256"
        }
      ],
      "stateMutability": "view",
      "type": "function"
    },
    {
      "inputs": [],
      "name": "initialPoolSize",
      "outputs": [
        {
          "internalType": "uint256",
          "name": "",
          "type": "uint256"
        }
      ],
      "stateMutability": "view",
      "type": "function"
    },
    {
      "inputs": [
        {
          "internalType": "uint256",
          "name": "index",
          "type": "uint256"
        }
      ],
      "name": "isRedeemed",
      "outputs": [
        {
          "internalType": "bool",
          "name": "",
          "type": "bool"
        }
      ],
      "stateMutability": "view",
      "type": "function"
    },
    {
      "inputs": [],
      "name": "merkleRoot",
      "outputs": [
        {
          "internalType": "bytes32",
          "name": "",
          "type": "bytes32"
        }
      ],
      "stateMutability": "view",
      "type": "function"
    },
    {
      "inputs": [
        {
          "components": [
            {
              "internalType": "uint256",
              "name": "index",
              "type": "uint256"
            },
            {
              "internalType": "address",
              "name": "account",
              "type": "address"
            },
            {
              "internalType": "uint256",
              "name": "tokens",
              "type": "uint256"
            },
            {
              "internalType": "uint256",
              "name": "eth",
              "type": "uint256"
            },
            {
              "internalType": "bytes32[]",
              "name": "merkleProof",
              "type": "bytes32[]"
            }
          ],
          "internalType": "struct IMerkleDistributor.Redeem",
          "name": "_redeem",
          "type": "tuple"
        },
        {
          "components": [
            {
              "internalType": "uint256",
              "name": "actualBalance",
              "type": "uint256"
            },
            {
              "internalType": "uint256",
              "name": "deadline",
              "type": "uint256"
            },
            {
              "internalType": "uint8",
              "name": "v",
              "type": "uint8"
            },
            {
              "internalType": "bytes32",
              "name": "r",
              "type": "bytes32"
            },
            {
              "internalType": "bytes32",
              "name": "s",
              "type": "bytes32"
            }
          ],
          "internalType": "struct IMerkleDistributor.Permit",
          "name": "_permit",
          "type": "tuple"
        }
      ],
      "name": "permitRedeem",
      "outputs": [],
      "stateMutability": "nonpayable",
      "type": "function"
    },
    {
      "inputs": [],
      "name": "recipient",
      "outputs": [
        {
          "internalType": "address",
          "name": "",
          "type": "address"
        }
      ],
      "stateMutability": "view",
      "type": "function"
    },
    {
      "inputs": [
        {
          "components": [
            {
              "internalType": "uint256",
              "name": "index",
              "type": "uint256"
            },
            {
              "internalType": "address",
              "name": "account",
              "type": "address"
            },
            {
              "internalType": "uint256",
              "name": "tokens",
              "type": "uint256"
            },
            {
              "internalType": "uint256",
              "name": "eth",
              "type": "uint256"
            },
            {
              "internalType": "bytes32[]",
              "name": "merkleProof",
              "type": "bytes32[]"
            }
          ],
          "internalType": "struct IMerkleDistributor.Redeem",
          "name": "_redeem",
          "type": "tuple"
        },
        {
          "internalType": "uint256",
          "name": "_actualBalance",
          "type": "uint256"
        }
      ],
      "name": "redeem",
      "outputs": [],
      "stateMutability": "nonpayable",
      "type": "function"
    },
    {
      "inputs": [],
      "name": "redeemed",
      "outputs": [
        {
          "internalType": "uint256",
          "name": "",
          "type": "uint256"
        }
      ],
      "stateMutability": "view",
      "type": "function"
    },
    {
      "inputs": [],
      "name": "token",
      "outputs": [
        {
          "internalType": "address",
          "name": "",
          "type": "address"
        }
      ],
      "stateMutability": "view",
      "type": "function"
    },
    {
      "inputs": [],
      "name": "totalRedemptions",
      "outputs": [
        {
          "internalType": "uint256",
          "name": "",
          "type": "uint256"
        }
      ],
      "stateMutability": "view",
      "type": "function"
    },
    {
      "inputs": [],
      "name": "withdrawRemainder",
      "outputs": [],
      "stateMutability": "nonpayable",
      "type": "function"
    },
    {
      "stateMutability": "payable",
      "type": "receive"
    }
  ],
  "bytecode": "0x61014060405234801561001157600080fd5b5060405161103a38038061103a8339810160408190526100309161007c565b6001600160a01b0395861660805260a09490945260c09290925260e08190526001556101005216610120526100d4565b80516001600160a01b038116811461007757600080fd5b919050565b60008060008060008060c0878903121561009557600080fd5b61009e87610060565b9550602087015194506040870151935060608701519250608087015191506100c860a08801610060565b90509295509295509295565b60805160a05160c05160e0516101005161012051610ee66101546000396000818161025901528181610619015261069001526000818161022501526104a7015260006102d60152600061028d01526000818161017101526107b901526000818161035601528181610437015281816104fa015261084f0152610ee66000f3fe6080604052600436106100ec5760003560e01c806381064b251161008a578063d6de5cf611610059578063d6de5cf614610318578063e231bff01461032e578063fc0c546a14610344578063fc2dc4c11461037857600080fd5b806381064b251461027b5780638b9b1cbd146102af578063910ada6b146102c4578063d003948f146102f857600080fd5b80634b47583d116100c65780634b47583d146101c35780634e6fd6c4146101e55780635e5294b71461021357806366d003ac1461024757600080fd5b806314a0fc68146101305780632eb4a7ab1461015f57806332d33cd01461019357600080fd5b3661012b57604080513381523460208201527f85177f287940f2f05425a4029951af0e047a7f9c4eaa9a6e6917bcd869f86695910160405180910390a1005b600080fd5b34801561013c57600080fd5b5061014c670de0b6b3a764000081565b6040519081526020015b60405180910390f35b34801561016b57600080fd5b5061014c7f000000000000000000000000000000000000000000000000000000000000000081565b34801561019f57600080fd5b506101b36101ae366004610b2d565b610398565b6040519015158152602001610156565b3480156101cf57600080fd5b506101e36101de366004610ca6565b6103d9565b005b3480156101f157600080fd5b506101fb61dead81565b6040516001600160a01b039091168152602001610156565b34801561021f57600080fd5b5061014c7f000000000000000000000000000000000000000000000000000000000000000081565b34801561025357600080fd5b506101fb7f000000000000000000000000000000000000000000000000000000000000000081565b34801561028757600080fd5b5061014c7f000000000000000000000000000000000000000000000000000000000000000081565b3480156102bb57600080fd5b506101e36104a5565b3480156102d057600080fd5b5061014c7f000000000000000000000000000000000000000000000000000000000000000081565b34801561030457600080fd5b506101e3610313366004610d44565b6106e7565b34801561032457600080fd5b5061014c60015481565b34801561033a57600080fd5b5061014c60025481565b34801561035057600080fd5b506101fb7f000000000000000000000000000000000000000000000000000000000000000081565b34801561038457600080fd5b5061014c610393366004610d89565b6109ee565b6000806103a761010084610de1565b905060006103b761010085610df5565b60009283526020839052604090922054600190921b9182169091149392505050565b8051602082015160408084015160608501516080860151925163d505accf60e01b81523360048201523060248201526044810195909552606485019390935260ff16608484015260a483019190915260c48201526001600160a01b037f0000000000000000000000000000000000000000000000000000000000000000169063d505accf9060e401600060405180830381600087803b15801561047b57600080fd5b505af115801561048f573d6000803e3d6000fd5b505050506104a18282600001516106e7565b5050565b7f000000000000000000000000000000000000000000000000000000000000000042116104e55760405163108d550960e11b815260040160405180910390fd5b6040516370a0823160e01b81523060048201527f00000000000000000000000000000000000000000000000000000000000000006001600160a01b03169063a9059cbb9061dead9083906370a0823190602401602060405180830381865afa158015610555573d6000803e3d6000fd5b505050506040513d601f19601f820116820180604052508101906105799190610e09565b6040516001600160e01b031960e085901b1681526001600160a01b03909216600483015260248201526044016020604051808303816000875af11580156105c4573d6000803e3d6000fd5b505050506040513d601f19601f820116820180604052508101906105e89190610e22565b5047600081900361060c576040516361cc654560e01b815260040160405180910390fd5b6040516001600160a01b037f000000000000000000000000000000000000000000000000000000000000000016908290600081818185875af1925050503d8060008114610675576040519150601f19603f3d011682016040523d82523d6000602084013e61067a565b606091505b5050600060015550604080516001600160a01b037f0000000000000000000000000000000000000000000000000000000000000000168152602081018390527fa5f9568e9e055da92509aef4173fd2c3035f887b99405eb97a0a07d8e0e14ba4910160405180910390a150565b81516106f290610398565b1561071057604051637ba2bded60e01b815260040160405180910390fd5b81602001516001600160a01b0316336001600160a01b03161461074657604051631b122f0360e11b815260040160405180910390fd5b60008260000151836020015184604001518560600151604051602001610797949392919093845260609290921b6bffffffffffffffffffffffff191660208401526034830152605482015260740190565b6040516020818303038152906040528051906020012090506107de83608001517f000000000000000000000000000000000000000000000000000000000000000083610a58565b6107fb576040516309bde33960e01b815260040160405180910390fd5b825161080690610a6e565b600061081b84604001518486606001516109ee565b60208501516040516323b872dd60e01b81526001600160a01b039182166004820152306024820152604481018690529192507f000000000000000000000000000000000000000000000000000000000000000016906323b872dd906064016020604051808303816000875af1158015610898573d6000803e3d6000fd5b505050506040513d601f19601f820116820180604052508101906108bc9190610e22565b6108d95760405163022e258160e11b815260040160405180910390fd5b600084602001516001600160a01b03168260405160006040518083038185875af1925050503d806000811461092a576040519150601f19603f3d011682016040523d82523d6000602084013e61092f565b606091505b505090508061095157604051630db2c7f160e31b815260040160405180910390fd5b6001600260008282546109649190610e44565b92505081905550816001600082825461097d9190610e57565b909155505084516020808701516040808901516060808b015183519687526001600160a01b0390941694860194909452848201529183015260808201849052517fd1f50717286f9564e69db657165181e471d01523ce248549f6f28b5d6b044d5b9181900360a00190a15050505050565b600083831115610a1157604051635f74de2f60e11b815260040160405180910390fd5b600084610a26670de0b6b3a764000086610e6a565b610a309190610de1565b9050670de0b6b3a7640000610a458285610e6a565b610a4f9190610de1565b95945050505050565b600082610a658584610aac565b14949350505050565b6000610a7c61010083610de1565b90506000610a8c61010084610df5565b6000928352602083905260409092208054600190931b9092179091555050565b600081815b8451811015610af157610add82868381518110610ad057610ad0610e81565b6020026020010151610afb565b915080610ae981610e97565b915050610ab1565b5090505b92915050565b6000818310610b17576000828152602084905260409020610b26565b60008381526020839052604090205b9392505050565b600060208284031215610b3f57600080fd5b5035919050565b634e487b7160e01b600052604160045260246000fd5b60405160a0810167ffffffffffffffff81118282101715610b7f57610b7f610b46565b60405290565b604051601f8201601f1916810167ffffffffffffffff81118282101715610bae57610bae610b46565b604052919050565b600060a08284031215610bc857600080fd5b610bd0610b5c565b8235815290506020808301356001600160a01b0381168114610bf157600080fd5b8082840152506040830135604083015260608301356060830152608083013567ffffffffffffffff80821115610c2657600080fd5b818501915085601f830112610c3a57600080fd5b813581811115610c4c57610c4c610b46565b8060051b9150610c5d848301610b85565b8181529183018401918481019088841115610c7757600080fd5b938501935b83851015610c9557843582529385019390850190610c7c565b608087015250939695505050505050565b60008082840360c0811215610cba57600080fd5b833567ffffffffffffffff811115610cd157600080fd5b610cdd86828701610bb6565b93505060a0601f1982011215610cf257600080fd5b50610cfb610b5c565b6020840135815260408401356020820152606084013560ff81168114610d2057600080fd5b6040820152608084810135606083015260a090940135938101939093525092909150565b60008060408385031215610d5757600080fd5b823567ffffffffffffffff811115610d6e57600080fd5b610d7a85828601610bb6565b95602094909401359450505050565b600080600060608486031215610d9e57600080fd5b505081359360208301359350604090920135919050565b634e487b7160e01b600052601260045260246000fd5b634e487b7160e01b600052601160045260246000fd5b600082610df057610df0610db5565b500490565b600082610e0457610e04610db5565b500690565b600060208284031215610e1b57600080fd5b5051919050565b600060208284031215610e3457600080fd5b81518015158114610b2657600080fd5b80820180821115610af557610af5610dcb565b81810381811115610af557610af5610dcb565b8082028115828204841417610af557610af5610dcb565b634e487b7160e01b600052603260045260246000fd5b600060018201610ea957610ea9610dcb565b506001019056fea26469706673582212206186c2da03b13c04b5dce740c3c60f440af266206836ae7d0fbf5c983a8a556664736f6c63430008140033",
  "linkReferences": {},
  "deployedLinkReferences": {}
}