{
  "_format": "hh-sol-artifact-1",
  "contractName": "MerkleDistributor",
  "sourceName": "contracts/MerkleDistributor.sol",
  "abi": [
    {
      "inputs": [
        {
          "internalType": "address",
          "name": "token_",
          "type": "address"
        },
        {
          "internalType": "bytes32",
          "name": "merkleRoot_",
          "type": "bytes32"
        },
        {
          "internalType": "uint256",
          "name": "_totalRedemptions",
          "type": "uint256"
        },
        {
          "internalType": "uint256",
          "name": "_initialPoolSize",
          "type": "uint256"
        },
        {
          "internalType": "uint256",
          "name": "_endingTimestamp",
          "type": "uint256"
        },
        {
          "internalType": "address",
          "name": "_recipient",
          "type": "address"
        }
      ],
      "stateMutability": "nonpayable",
      "type": "constructor"
    },
    {
      "inputs": [],
      "name": "EthTransferFailed",
      "type": "error"
    },
    {
      "inputs": [],
      "name": "IllegibleTokenAmount",
      "type": "error"
    },
    {
      "inputs": [],
      "name": "InvalidProof",
      "type": "error"
    },
    {
      "inputs": [],
      "name": "NoEthToWithdraw",
      "type": "error"
    },
    {
      "inputs": [],
      "name": "OnlyOwnerCanRedeem",
      "type": "error"
    },
    {
      "inputs": [],
      "name": "RedemptionAlreadyFulfilled",
      "type": "error"
    },
    {
      "inputs": [],
      "name": "RedemptionPeriodNotFinished",
      "type": "error"
    },
    {
      "inputs": [],
      "name": "TokenTransferFailed",
      "type": "error"
    },
    {
      "anonymous": false,
      "inputs": [
        {
          "indexed": false,
          "internalType": "address",
          "name": "sender",
          "type": "address"
        },
        {
          "indexed": false,
          "internalType": "uint256",
          "name": "ethSent",
          "type": "uint256"
        }
      ],
      "name": "EthReceived",
      "type": "event"
    },
    {
      "anonymous": false,
      "inputs": [
        {
          "indexed": false,
          "internalType": "address",
          "name": "recipient",
          "type": "address"
        },
        {
          "indexed": false,
          "internalType": "uint256",
          "name": "ethWithdrawn",
          "type": "uint256"
        }
      ],
      "name": "EthWithdrawnAfterEndingPeriod",
      "type": "event"
    },
    {
      "anonymous": false,
      "inputs": [
        {
          "indexed": false,
          "internalType": "uint256",
          "name": "index",
          "type": "uint256"
        },
        {
          "indexed": false,
          "internalType": "address",
          "name": "account",
          "type": "address"
        },
        {
          "indexed": false,
          "internalType": "uint256",
          "name": "amount",
          "type": "uint256"
        },
        {
          "indexed": false,
          "internalType": "uint256",
          "name": "allocatedEth",
          "type": "uint256"
        },
        {
          "indexed": false,
          "internalType": "uint256",
          "name": "redeemedEth",
          "type": "uint256"
        }
      ],
      "name": "Redeemed",
      "type": "event"
    },
    {
      "inputs": [],
      "name": "MAX_PERCENTAGE_BPS",
      "outputs": [
        {
          "internalType": "uint256",
          "name": "",
          "type": "uint256"
        }
      ],
      "stateMutability": "view",
      "type": "function"
    },
    {
      "inputs": [
        {
          "internalType": "uint256",
          "name": "allocatedTokens",
          "type": "uint256"
        },
        {
          "internalType": "uint256",
          "name": "actual",
          "type": "uint256"
        },
        {
          "internalType": "uint256",
          "name": "allocatedEth",
          "type": "uint256"
        }
      ],
      "name": "calcRedeemableAmount",
      "outputs": [
        {
          "internalType": "uint256",
          "name": "",
          "type": "uint256"
        }
      ],
      "stateMutability": "pure",
      "type": "function"
    },
    {
      "inputs": [],
      "name": "currentPoolSize",
      "outputs": [
        {
          "internalType": "uint256",
          "name": "",
          "type": "uint256"
        }
      ],
      "stateMutability": "view",
      "type": "function"
    },
    {
      "inputs": [],
      "name": "endingTimestamp",
      "outputs": [
        {
          "internalType": "uint256",
          "name": "",
          "type": "uint256"
        }
      ],
      "stateMutability": "view",
      "type": "function"
    },
    {
      "inputs": [],
      "name": "initialPoolSize",
      "outputs": [
        {
          "internalType": "uint256",
          "name": "",
          "type": "uint256"
        }
      ],
      "stateMutability": "view",
      "type": "function"
    },
    {
      "inputs": [
        {
          "internalType": "uint256",
          "name": "index",
          "type": "uint256"
        }
      ],
      "name": "isRedeemed",
      "outputs": [
        {
          "internalType": "bool",
          "name": "",
          "type": "bool"
        }
      ],
      "stateMutability": "view",
      "type": "function"
    },
    {
      "inputs": [],
      "name": "merkleRoot",
      "outputs": [
        {
          "internalType": "bytes32",
          "name": "",
          "type": "bytes32"
        }
      ],
      "stateMutability": "view",
      "type": "function"
    },
    {
      "inputs": [
        {
          "components": [
            {
              "internalType": "uint256",
              "name": "index",
              "type": "uint256"
            },
            {
              "internalType": "address",
              "name": "account",
              "type": "address"
            },
            {
              "internalType": "uint256",
              "name": "tokens",
              "type": "uint256"
            },
            {
              "internalType": "uint256",
              "name": "eth",
              "type": "uint256"
            },
            {
              "internalType": "bytes32[]",
              "name": "merkleProof",
              "type": "bytes32[]"
            }
          ],
          "internalType": "struct IMerkleDistributor.Redeem",
          "name": "_redeem",
          "type": "tuple"
        },
        {
          "components": [
            {
              "internalType": "uint256",
              "name": "actualBalance",
              "type": "uint256"
            },
            {
              "internalType": "uint256",
              "name": "deadline",
              "type": "uint256"
            },
            {
              "internalType": "uint8",
              "name": "v",
              "type": "uint8"
            },
            {
              "internalType": "bytes32",
              "name": "r",
              "type": "bytes32"
            },
            {
              "internalType": "bytes32",
              "name": "s",
              "type": "bytes32"
            }
          ],
          "internalType": "struct IMerkleDistributor.Permit",
          "name": "_permit",
          "type": "tuple"
        }
      ],
      "name": "permitRedeem",
      "outputs": [],
      "stateMutability": "nonpayable",
      "type": "function"
    },
    {
      "inputs": [],
      "name": "recipient",
      "outputs": [
        {
          "internalType": "address",
          "name": "",
          "type": "address"
        }
      ],
      "stateMutability": "view",
      "type": "function"
    },
    {
      "inputs": [
        {
          "components": [
            {
              "internalType": "uint256",
              "name": "index",
              "type": "uint256"
            },
            {
              "internalType": "address",
              "name": "account",
              "type": "address"
            },
            {
              "internalType": "uint256",
              "name": "tokens",
              "type": "uint256"
            },
            {
              "internalType": "uint256",
              "name": "eth",
              "type": "uint256"
            },
            {
              "internalType": "bytes32[]",
              "name": "merkleProof",
              "type": "bytes32[]"
            }
          ],
          "internalType": "struct IMerkleDistributor.Redeem",
          "name": "_redeem",
          "type": "tuple"
        },
        {
          "internalType": "uint256",
          "name": "_actualBalance",
          "type": "uint256"
        }
      ],
      "name": "redeem",
      "outputs": [],
      "stateMutability": "nonpayable",
      "type": "function"
    },
    {
      "inputs": [],
      "name": "redeemed",
      "outputs": [
        {
          "internalType": "uint256",
          "name": "",
          "type": "uint256"
        }
      ],
      "stateMutability": "view",
      "type": "function"
    },
    {
      "inputs": [
        {
          "internalType": "address",
          "name": "",
          "type": "address"
        }
      ],
      "name": "redeemedPerAccount",
      "outputs": [
        {
          "internalType": "uint256",
          "name": "",
          "type": "uint256"
        }
      ],
      "stateMutability": "view",
      "type": "function"
    },
    {
      "inputs": [],
      "name": "token",
      "outputs": [
        {
          "internalType": "address",
          "name": "",
          "type": "address"
        }
      ],
      "stateMutability": "view",
      "type": "function"
    },
    {
      "inputs": [],
      "name": "totalRedemptions",
      "outputs": [
        {
          "internalType": "uint256",
          "name": "",
          "type": "uint256"
        }
      ],
      "stateMutability": "view",
      "type": "function"
    },
    {
      "inputs": [],
      "name": "withdrawRemainder",
      "outputs": [],
      "stateMutability": "nonpayable",
      "type": "function"
    },
    {
      "stateMutability": "payable",
      "type": "receive"
    }
  ],
  "bytecode": "0x61014060405234801561001157600080fd5b506040516110873803806110878339810160408190526100309161007c565b6001600160a01b0395861660805260a09490945260c09290925260e08190526002556101005216610120526100d4565b80516001600160a01b038116811461007757600080fd5b919050565b60008060008060008060c0878903121561009557600080fd5b61009e87610060565b9550602087015194506040870151935060608701519250608087015191506100c860a08801610060565b90509295509295509295565b60805160a05160c05160e0516101005161012051610f336101546000396000818161022b0152818161060d01526106840152600081816101f701526104be015260006102c00152600061027701526000818161017101526107ad01526000818161036d0152818161044e0152818161051101526108430152610f336000f3fe6080604052600436106100ec5760003560e01c80638b9b1cbd1161008a578063d6de5cf611610059578063d6de5cf61461032f578063e231bff014610345578063fc0c546a1461035b578063fc2dc4c11461038f57600080fd5b80638b9b1cbd14610299578063910ada6b146102ae578063a87102d3146102e2578063d003948f1461030f57600080fd5b80634b47583d116100c65780634b47583d146101c35780635e5294b7146101e557806366d003ac1461021957806381064b251461026557600080fd5b806314a0fc68146101305780632eb4a7ab1461015f57806332d33cd01461019357600080fd5b3661012b57604080513381523460208201527f85177f287940f2f05425a4029951af0e047a7f9c4eaa9a6e6917bcd869f86695910160405180910390a1005b600080fd5b34801561013c57600080fd5b5061014c670de0b6b3a764000081565b6040519081526020015b60405180910390f35b34801561016b57600080fd5b5061014c7f000000000000000000000000000000000000000000000000000000000000000081565b34801561019f57600080fd5b506101b36101ae366004610b53565b6103af565b6040519015158152602001610156565b3480156101cf57600080fd5b506101e36101de366004610cd8565b6103f0565b005b3480156101f157600080fd5b5061014c7f000000000000000000000000000000000000000000000000000000000000000081565b34801561022557600080fd5b5061024d7f000000000000000000000000000000000000000000000000000000000000000081565b6040516001600160a01b039091168152602001610156565b34801561027157600080fd5b5061014c7f000000000000000000000000000000000000000000000000000000000000000081565b3480156102a557600080fd5b506101e36104bc565b3480156102ba57600080fd5b5061014c7f000000000000000000000000000000000000000000000000000000000000000081565b3480156102ee57600080fd5b5061014c6102fd366004610d76565b60016020526000908152604090205481565b34801561031b57600080fd5b506101e361032a366004610d91565b6106db565b34801561033b57600080fd5b5061014c60025481565b34801561035157600080fd5b5061014c60035481565b34801561036757600080fd5b5061024d7f000000000000000000000000000000000000000000000000000000000000000081565b34801561039b57600080fd5b5061014c6103aa366004610dd6565b610a14565b6000806103be61010084610e2e565b905060006103ce61010085610e42565b60009283526020839052604090922054600190921b9182169091149392505050565b8051602082015160408084015160608501516080860151925163d505accf60e01b81523360048201523060248201526044810195909552606485019390935260ff16608484015260a483019190915260c48201526001600160a01b037f0000000000000000000000000000000000000000000000000000000000000000169063d505accf9060e401600060405180830381600087803b15801561049257600080fd5b505af11580156104a6573d6000803e3d6000fd5b505050506104b88282600001516106db565b5050565b7f000000000000000000000000000000000000000000000000000000000000000042116104fc5760405163108d550960e11b815260040160405180910390fd5b6040516370a0823160e01b81523060048201527f00000000000000000000000000000000000000000000000000000000000000006001600160a01b0316906342966c689082906370a0823190602401602060405180830381865afa158015610568573d6000803e3d6000fd5b505050506040513d601f19601f8201168201806040525081019061058c9190610e56565b6040518263ffffffff1660e01b81526004016105aa91815260200190565b600060405180830381600087803b1580156105c457600080fd5b505af11580156105d8573d6000803e3d6000fd5b5047925050506000819003610600576040516361cc654560e01b815260040160405180910390fd5b6040516001600160a01b037f000000000000000000000000000000000000000000000000000000000000000016908290600081818185875af1925050503d8060008114610669576040519150601f19603f3d011682016040523d82523d6000602084013e61066e565b606091505b5050600060025550604080516001600160a01b037f0000000000000000000000000000000000000000000000000000000000000000168152602081018390527fa5f9568e9e055da92509aef4173fd2c3035f887b99405eb97a0a07d8e0e14ba4910160405180910390a150565b81516106e6906103af565b1561070457604051637ba2bded60e01b815260040160405180910390fd5b81602001516001600160a01b0316336001600160a01b03161461073a57604051631b122f0360e11b815260040160405180910390fd5b6000826000015183602001518460400151856060015160405160200161078b949392919093845260609290921b6bffffffffffffffffffffffff191660208401526034830152605482015260740190565b6040516020818303038152906040528051906020012090506107d283608001517f000000000000000000000000000000000000000000000000000000000000000083610a7e565b6107ef576040516309bde33960e01b815260040160405180910390fd5b82516107fa90610a94565b600061080f8460400151848660600151610a14565b60208501516040516323b872dd60e01b81526001600160a01b039182166004820152306024820152604481018690529192507f000000000000000000000000000000000000000000000000000000000000000016906323b872dd906064016020604051808303816000875af115801561088c573d6000803e3d6000fd5b505050506040513d601f19601f820116820180604052508101906108b09190610e6f565b6108cd5760405163022e258160e11b815260040160405180910390fd5b600084602001516001600160a01b03168260405160006040518083038185875af1925050503d806000811461091e576040519150601f19603f3d011682016040523d82523d6000602084013e610923565b606091505b505090508061094557604051630db2c7f160e31b815260040160405180910390fd5b6001600360008282546109589190610e91565b9250508190555081600260008282546109719190610ea4565b90915550506020808601516001600160a01b0316600090815260019091526040812080548492906109a3908490610e91565b909155505084516020808701516040808901516060808b015183519687526001600160a01b0390941694860194909452848201529183015260808201849052517fd1f50717286f9564e69db657165181e471d01523ce248549f6f28b5d6b044d5b9181900360a00190a15050505050565b600083831115610a3757604051635f74de2f60e11b815260040160405180910390fd5b600084610a4c670de0b6b3a764000086610eb7565b610a569190610e2e565b9050670de0b6b3a7640000610a6b8285610eb7565b610a759190610e2e565b95945050505050565b600082610a8b8584610ad2565b14949350505050565b6000610aa261010083610e2e565b90506000610ab261010084610e42565b6000928352602083905260409092208054600190931b9092179091555050565b600081815b8451811015610b1757610b0382868381518110610af657610af6610ece565b6020026020010151610b21565b915080610b0f81610ee4565b915050610ad7565b5090505b92915050565b6000818310610b3d576000828152602084905260409020610b4c565b60008381526020839052604090205b9392505050565b600060208284031215610b6557600080fd5b5035919050565b634e487b7160e01b600052604160045260246000fd5b60405160a0810167ffffffffffffffff81118282101715610ba557610ba5610b6c565b60405290565b604051601f8201601f1916810167ffffffffffffffff81118282101715610bd457610bd4610b6c565b604052919050565b80356001600160a01b0381168114610bf357600080fd5b919050565b600060a08284031215610c0a57600080fd5b610c12610b82565b9050813581526020610c25818401610bdc565b818301526040830135604083015260608301356060830152608083013567ffffffffffffffff80821115610c5857600080fd5b818501915085601f830112610c6c57600080fd5b813581811115610c7e57610c7e610b6c565b8060051b9150610c8f848301610bab565b8181529183018401918481019088841115610ca957600080fd5b938501935b83851015610cc757843582529385019390850190610cae565b608087015250939695505050505050565b60008082840360c0811215610cec57600080fd5b833567ffffffffffffffff811115610d0357600080fd5b610d0f86828701610bf8565b93505060a0601f1982011215610d2457600080fd5b50610d2d610b82565b6020840135815260408401356020820152606084013560ff81168114610d5257600080fd5b6040820152608084810135606083015260a090940135938101939093525092909150565b600060208284031215610d8857600080fd5b610b4c82610bdc565b60008060408385031215610da457600080fd5b823567ffffffffffffffff811115610dbb57600080fd5b610dc785828601610bf8565b95602094909401359450505050565b600080600060608486031215610deb57600080fd5b505081359360208301359350604090920135919050565b634e487b7160e01b600052601260045260246000fd5b634e487b7160e01b600052601160045260246000fd5b600082610e3d57610e3d610e02565b500490565b600082610e5157610e51610e02565b500690565b600060208284031215610e6857600080fd5b5051919050565b600060208284031215610e8157600080fd5b81518015158114610b4c57600080fd5b80820180821115610b1b57610b1b610e18565b81810381811115610b1b57610b1b610e18565b8082028115828204841417610b1b57610b1b610e18565b634e487b7160e01b600052603260045260246000fd5b600060018201610ef657610ef6610e18565b506001019056fea2646970667358221220217f53579ea76dee9a7abb39711eb4126e5f9d4c0e50ce0b9afee2d47e11222764736f6c63430008140033",
  "linkReferences": {},
  "deployedLinkReferences": {}
}